{
  "_format": "hh-sol-artifact-1",
  "contractName": "Todo",
  "sourceName": "contracts/Todo.sol",
  "abi": [
    {
      "anonymous": false,
      "inputs": [
        {
          "indexed": true,
          "internalType": "address",
          "name": "sender",
          "type": "address"
        },
        {
          "indexed": false,
          "internalType": "string",
          "name": "text",
          "type": "string"
        }
      ],
      "name": "AddedTask",
      "type": "event"
    },
    {
      "anonymous": false,
      "inputs": [
        {
          "indexed": false,
          "internalType": "uint256",
          "name": "id",
          "type": "uint256"
        },
        {
          "indexed": false,
          "internalType": "string",
          "name": "text",
          "type": "string"
        }
      ],
      "name": "DeletedTask",
      "type": "event"
    },
    {
      "anonymous": false,
      "inputs": [
        {
          "indexed": false,
          "internalType": "uint256",
          "name": "id",
          "type": "uint256"
        },
        {
          "indexed": false,
          "internalType": "bool",
          "name": "completed",
          "type": "bool"
        }
      ],
      "name": "ToggledTask",
      "type": "event"
    },
    {
      "inputs": [
        {
          "internalType": "string",
          "name": "_text",
          "type": "string"
        }
      ],
      "name": "addTodo",
      "outputs": [],
      "stateMutability": "nonpayable",
      "type": "function"
    },
    {
      "inputs": [
        {
          "internalType": "uint256",
          "name": "_id",
          "type": "uint256"
        }
      ],
      "name": "deleteTask",
      "outputs": [],
      "stateMutability": "nonpayable",
      "type": "function"
    },
    {
      "inputs": [],
      "name": "getTodo",
      "outputs": [
        {
          "components": [
            {
              "internalType": "uint256",
              "name": "id",
              "type": "uint256"
            },
            {
              "internalType": "string",
              "name": "text",
              "type": "string"
            },
            {
              "internalType": "bool",
              "name": "completed",
              "type": "bool"
            }
          ],
          "internalType": "struct Todo.TaskItem[]",
          "name": "",
          "type": "tuple[]"
        }
      ],
      "stateMutability": "view",
      "type": "function"
    },
    {
      "inputs": [
        {
          "internalType": "uint256",
          "name": "_id",
          "type": "uint256"
        }
      ],
      "name": "toggledTask",
      "outputs": [],
      "stateMutability": "nonpayable",
      "type": "function"
    }
  ],
  "bytecode": "0x608060405234801561001057600080fd5b50610a83806100206000396000f3fe608060405234801561001057600080fd5b506004361061004c5760003560e01c8063560f3192146100515780637fa1680a1461006657806395ffebf514610084578063f4c25e4f14610097575b600080fd5b61006461005f3660046108b5565b6100aa565b005b61006e6102d9565b60405161007b9190610918565b60405180910390f35b61006461009236600461080b565b610442565b6100646100a53660046108b5565b610554565b80806100ea5760405162461bcd60e51b815260206004820152600a602482015269125b9d985b1a59081a5960b21b60448201526064015b60405180910390fd5b336000908152600160205260408120905b81548110156102d3578382828154811061012557634e487b7160e01b600052603260045260246000fd5b906000526020600020906003020160000154148015610176575081818154811061015f57634e487b7160e01b600052603260045260246000fd5b906000526020600020906003020160000154600014155b156102c157600082828154811061019d57634e487b7160e01b600052603260045260246000fd5b906000526020600020906003020160010180546101b9906109d5565b80601f01602080910402602001604051908101604052809291908181526020018280546101e5906109d5565b80156102325780601f1061020757610100808354040283529160200191610232565b820191906000526020600020905b81548152906001019060200180831161021557829003601f168201915b5050505050905082828154811061025957634e487b7160e01b600052603260045260246000fd5b600091825260208220600390910201818155906102796001830182610735565b50600201805460ff191690556040517f7a9313530f60c57c636392e7d42d8738923cd8f6922db1ba76cc9df0bf64b069906102b790879084906109b4565b60405180910390a1505b806102cb81610a10565b9150506100fb565b50505050565b3360009081526001602052604090205460609061032f5760405162461bcd60e51b8152602060048201526014602482015273596f7520646f6e2774206861766520746f646f7360601b60448201526064016100e1565b33600090815260016020908152604080832080548251818502810185019093528083529193909284015b82821015610439578382906000526020600020906003020160405180606001604052908160008201548152602001600182018054610396906109d5565b80601f01602080910402602001604051908101604052809291908181526020018280546103c2906109d5565b801561040f5780601f106103e45761010080835404028352916020019161040f565b820191906000526020600020905b8154815290600101906020018083116103f257829003601f168201915b50505091835250506002919091015460ff1615156020918201529082526001929092019101610359565b50505050905090565b805161047f5760405162461bcd60e51b815260206004820152600c60248201526b456d70747920737472696e6760a01b60448201526064016100e1565b33600090815260208190526040812080549161049a83610a10565b90915550503360009081526001602081815260408084208151606081018352858452828620548152808401878152928101869052815480860183559186529483902085516003909202019081559051805191936104fd9390850192910190610772565b50604091820151600291909101805460ff19169115159190911790555133907f8ea7f4c3d0136bfdf37681abad4b68ac12708075580e8b31eb2ce601a1a4cce59061054990849061099a565b60405180910390a250565b808061058f5760405162461bcd60e51b815260206004820152600a602482015269125b9d985b1a59081a5960b21b60448201526064016100e1565b336000908152600160205260408120905b81548110156102d357838282815481106105ca57634e487b7160e01b600052603260045260246000fd5b90600052602060002090600302016000015414801561061b575081818154811061060457634e487b7160e01b600052603260045260246000fd5b906000526020600020906003020160000154600014155b156107235781818154811061064057634e487b7160e01b600052603260045260246000fd5b906000526020600020906003020160020160009054906101000a900460ff161582828154811061068057634e487b7160e01b600052603260045260246000fd5b906000526020600020906003020160020160006101000a81548160ff0219169083151502179055507fc187da60718c59f4cadfe77b3313f949902278d502dbd627d763fad7a58d423c848383815481106106ea57634e487b7160e01b600052603260045260246000fd5b600091825260209091206002600390920201015460405161071a929160ff16909182521515602082015260400190565b60405180910390a15b8061072d81610a10565b9150506105a0565b508054610741906109d5565b6000825580601f10610751575050565b601f01602090049060005260206000209081019061076f91906107f6565b50565b82805461077e906109d5565b90600052602060002090601f0160209004810192826107a057600085556107e6565b82601f106107b957805160ff19168380011785556107e6565b828001600101855582156107e6579182015b828111156107e65782518255916020019190600101906107cb565b506107f29291506107f6565b5090565b5b808211156107f257600081556001016107f7565b60006020828403121561081c578081fd5b813567ffffffffffffffff80821115610833578283fd5b818401915084601f830112610846578283fd5b81358181111561085857610858610a37565b604051601f8201601f19908116603f0116810190838211818310171561088057610880610a37565b81604052828152876020848701011115610898578586fd5b826020860160208301379182016020019490945295945050505050565b6000602082840312156108c6578081fd5b5035919050565b60008151808452815b818110156108f2576020818501810151868301820152016108d6565b818111156109035782602083870101525b50601f01601f19169290920160200192915050565b60006020808301818452808551808352604092508286019150828160051b870101848801865b8381101561098c57603f19898403018552815160608151855288820151818a87015261096c828701826108cd565b92890151151595890195909552509487019492509086019060010161093e565b509098975050505050505050565b6020815260006109ad60208301846108cd565b9392505050565b8281526040602082015260006109cd60408301846108cd565b949350505050565b600181811c908216806109e957607f821691505b60208210811415610a0a57634e487b7160e01b600052602260045260246000fd5b50919050565b6000600019821415610a3057634e487b7160e01b81526011600452602481fd5b5060010190565b634e487b7160e01b600052604160045260246000fdfea2646970667358221220caa29b7b93b2d563cfc10813e31d404a956bf6501b246745f03b0291c889123b64736f6c63430008040033",
  "linkReferences": {},
  "deployedLinkReferences": {}
}